{
  "contractName": "BlacklistManager",
  "abi": [
    {
      "anonymous": false,
      "inputs": [
        {
          "indexed": true,
          "internalType": "address",
          "name": "user",
          "type": "address"
        },
        {
          "indexed": true,
          "internalType": "bool",
          "name": "blacklisted",
          "type": "bool"
        }
      ],
      "name": "BlackListed",
      "type": "event"
    },
    {
      "anonymous": false,
      "inputs": [
        {
          "indexed": true,
          "internalType": "address",
          "name": "previousOwner",
          "type": "address"
        },
        {
          "indexed": true,
          "internalType": "address",
          "name": "newOwner",
          "type": "address"
        }
      ],
      "name": "OwnershipTransferred",
      "type": "event"
    },
    {
      "anonymous": false,
      "inputs": [
        {
          "indexed": false,
          "internalType": "bool",
          "name": "activeated",
          "type": "bool"
        }
      ],
      "name": "UnderAttackMode",
      "type": "event"
    },
    {
      "inputs": [
        {
          "internalType": "uint256",
          "name": "",
          "type": "uint256"
        }
      ],
      "name": "blackListedUsers",
      "outputs": [
        {
          "internalType": "address",
          "name": "",
          "type": "address"
        }
      ],
      "stateMutability": "view",
      "type": "function"
    },
    {
      "inputs": [],
      "name": "owner",
      "outputs": [
        {
          "internalType": "address",
          "name": "",
          "type": "address"
        }
      ],
      "stateMutability": "view",
      "type": "function"
    },
    {
      "inputs": [],
      "name": "renounceOwnership",
      "outputs": [],
      "stateMutability": "nonpayable",
      "type": "function"
    },
    {
      "inputs": [
        {
          "internalType": "address",
          "name": "newOwner",
          "type": "address"
        }
      ],
      "name": "transferOwnership",
      "outputs": [],
      "stateMutability": "nonpayable",
      "type": "function"
    },
    {
      "inputs": [],
      "name": "underAttackMode",
      "outputs": [
        {
          "internalType": "bool",
          "name": "",
          "type": "bool"
        }
      ],
      "stateMutability": "view",
      "type": "function"
    },
    {
      "inputs": [],
      "name": "toggleUnderAttackMode",
      "outputs": [],
      "stateMutability": "nonpayable",
      "type": "function"
    },
    {
      "inputs": [
        {
          "internalType": "address",
          "name": "_sender",
          "type": "address"
        }
      ],
      "name": "actionAllowed",
      "outputs": [
        {
          "internalType": "bool",
          "name": "",
          "type": "bool"
        }
      ],
      "stateMutability": "view",
      "type": "function"
    },
    {
      "inputs": [
        {
          "internalType": "address",
          "name": "_sender",
          "type": "address"
        }
      ],
      "name": "isBalcklisted",
      "outputs": [
        {
          "internalType": "bool",
          "name": "",
          "type": "bool"
        }
      ],
      "stateMutability": "view",
      "type": "function"
    },
    {
      "inputs": [
        {
          "internalType": "address",
          "name": "user",
          "type": "address"
        }
      ],
      "name": "blackList",
      "outputs": [],
      "stateMutability": "nonpayable",
      "type": "function"
    },
    {
      "inputs": [
        {
          "internalType": "address[]",
          "name": "_users",
          "type": "address[]"
        }
      ],
      "name": "blackListBatch",
      "outputs": [],
      "stateMutability": "nonpayable",
      "type": "function"
    },
    {
      "inputs": [],
      "name": "getBlackListedUsers",
      "outputs": [
        {
          "internalType": "address[]",
          "name": "",
          "type": "address[]"
        }
      ],
      "stateMutability": "view",
      "type": "function"
    },
    {
      "inputs": [
        {
          "internalType": "address",
          "name": "_user",
          "type": "address"
        }
      ],
      "name": "removeBlackList",
      "outputs": [],
      "stateMutability": "nonpayable",
      "type": "function"
    },
    {
      "inputs": [
        {
          "internalType": "address[]",
          "name": "_users",
          "type": "address[]"
        }
      ],
      "name": "removeBlackListBatch",
      "outputs": [],
      "stateMutability": "nonpayable",
      "type": "function"
    }
  ],
  "bytecode": "0x608060405234801561001057600080fd5b5061002d61002261003260201b60201c565b61003a60201b60201c565b6100fe565b600033905090565b60008060009054906101000a900473ffffffffffffffffffffffffffffffffffffffff169050816000806101000a81548173ffffffffffffffffffffffffffffffffffffffff021916908373ffffffffffffffffffffffffffffffffffffffff1602179055508173ffffffffffffffffffffffffffffffffffffffff168173ffffffffffffffffffffffffffffffffffffffff167f8be0079c531659141344cd1fd0a4f28419497f9722a3daafe3b4186f6b6457e060405160405180910390a35050565b6112d48061010d6000396000f3fe608060405234801561001057600080fd5b50600436106100cf5760003560e01c8063747caca81161008c5780639ff2be44116100665780639ff2be44146101ec578063dd0137bc1461021c578063e4997dc514610226578063f2fde38b14610242576100cf565b8063747caca8146101825780637b12f9e51461019e5780638da5cb5b146101ce576100cf565b80631553cb3c146100d457806319780e40146100f05780634838d1651461010e578063499d03791461012a5780636a375b2814610148578063715018a614610178575b600080fd5b6100ee60048036038101906100e99190610e6c565b61025e565b005b6100f8610320565b6040516101059190610ed0565b60405180910390f35b61012860048036038101906101239190610eeb565b610333565b005b6101326103bb565b60405161013f9190610fd6565b60405180910390f35b610162600480360381019061015d9190610eeb565b610449565b60405161016f9190610ed0565b60405180910390f35b610180610475565b005b61019c60048036038101906101979190610e6c565b6104fd565b005b6101b860048036038101906101b39190610eeb565b6105bf565b6040516101c59190610ed0565b60405180910390f35b6101d661066e565b6040516101e39190611007565b60405180910390f35b61020660048036038101906102019190611058565b610697565b6040516102139190611007565b60405180910390f35b6102246106d6565b005b610240600480360381019061023b9190610eeb565b6107c4565b005b61025c60048036038101906102579190610eeb565b61084c565b005b610266610944565b73ffffffffffffffffffffffffffffffffffffffff1661028461066e565b73ffffffffffffffffffffffffffffffffffffffff16146102da576040517f08c379a00000000000000000000000000000000000000000000000000000000081526004016102d1906110e2565b60405180910390fd5b60005b815181101561031c576103098282815181106102fc576102fb611102565b5b602002602001015161094c565b808061031490611160565b9150506102dd565b5050565b600260009054906101000a900460ff1681565b61033b610944565b73ffffffffffffffffffffffffffffffffffffffff1661035961066e565b73ffffffffffffffffffffffffffffffffffffffff16146103af576040517f08c379a00000000000000000000000000000000000000000000000000000000081526004016103a6906110e2565b60405180910390fd5b6103b881610b22565b50565b6060600180548060200260200160405190810160405280929190818152602001828054801561043f57602002820191906000526020600020905b8160009054906101000a900473ffffffffffffffffffffffffffffffffffffffff1673ffffffffffffffffffffffffffffffffffffffff16815260200190600101908083116103f5575b5050505050905090565b6000610454826105bf565b15801561046e5750600260009054906101000a900460ff16155b9050919050565b61047d610944565b73ffffffffffffffffffffffffffffffffffffffff1661049b61066e565b73ffffffffffffffffffffffffffffffffffffffff16146104f1576040517f08c379a00000000000000000000000000000000000000000000000000000000081526004016104e8906110e2565b60405180910390fd5b6104fb6000610bdd565b565b610505610944565b73ffffffffffffffffffffffffffffffffffffffff1661052361066e565b73ffffffffffffffffffffffffffffffffffffffff1614610579576040517f08c379a0000000000000000000000000000000000000000000000000000000008152600401610570906110e2565b60405180910390fd5b60005b81518110156105bb576105a882828151811061059b5761059a611102565b5b6020026020010151610b22565b80806105b390611160565b91505061057c565b5050565b600080600090505b60018054905081101561066357600181815481106105e8576105e7611102565b5b9060005260206000200160009054906101000a900473ffffffffffffffffffffffffffffffffffffffff1673ffffffffffffffffffffffffffffffffffffffff168373ffffffffffffffffffffffffffffffffffffffff161415610650576001915050610669565b808061065b90611160565b9150506105c7565b50600090505b919050565b60008060009054906101000a900473ffffffffffffffffffffffffffffffffffffffff16905090565b600181815481106106a757600080fd5b906000526020600020016000915054906101000a900473ffffffffffffffffffffffffffffffffffffffff1681565b6106de610944565b73ffffffffffffffffffffffffffffffffffffffff166106fc61066e565b73ffffffffffffffffffffffffffffffffffffffff1614610752576040517f08c379a0000000000000000000000000000000000000000000000000000000008152600401610749906110e2565b60405180910390fd5b600260009054906101000a900460ff1615600260006101000a81548160ff0219169083151502179055507f0ab8f205429e715ef65820cf452f7a3180a5ee81c4c7eb1c2ea9115ea3ef5348600260009054906101000a900460ff166040516107ba9190610ed0565b60405180910390a1565b6107cc610944565b73ffffffffffffffffffffffffffffffffffffffff166107ea61066e565b73ffffffffffffffffffffffffffffffffffffffff1614610840576040517f08c379a0000000000000000000000000000000000000000000000000000000008152600401610837906110e2565b60405180910390fd5b6108498161094c565b50565b610854610944565b73ffffffffffffffffffffffffffffffffffffffff1661087261066e565b73ffffffffffffffffffffffffffffffffffffffff16146108c8576040517f08c379a00000000000000000000000000000000000000000000000000000000081526004016108bf906110e2565b60405180910390fd5b600073ffffffffffffffffffffffffffffffffffffffff168173ffffffffffffffffffffffffffffffffffffffff161415610938576040517f08c379a000000000000000000000000000000000000000000000000000000000815260040161092f9061121b565b60405180910390fd5b61094181610bdd565b50565b600033905090565b60005b600180549050811015610ad7578173ffffffffffffffffffffffffffffffffffffffff166001828154811061098757610986611102565b5b9060005260206000200160009054906101000a900473ffffffffffffffffffffffffffffffffffffffff1673ffffffffffffffffffffffffffffffffffffffff161415610ac457600181815481106109e2576109e1611102565b5b9060005260206000200160009054906101000a900473ffffffffffffffffffffffffffffffffffffffff166001808080549050610a1f919061123b565b81548110610a3057610a2f611102565b5b9060005260206000200160006101000a81548173ffffffffffffffffffffffffffffffffffffffff021916908373ffffffffffffffffffffffffffffffffffffffff1602179055506001805480610a8a57610a8961126f565b5b6001900381819060005260206000200160006101000a81549073ffffffffffffffffffffffffffffffffffffffff02191690559055610ad7565b8080610acf90611160565b91505061094f565b50600015158173ffffffffffffffffffffffffffffffffffffffff167fb05df283fc0d63b1908f977b7732784e2203a0d2ccd1280cf16706ff62c3516260405160405180910390a350565b610b2b816105bf565b610bda576001819080600181540180825580915050600190039060005260206000200160009091909190916101000a81548173ffffffffffffffffffffffffffffffffffffffff021916908373ffffffffffffffffffffffffffffffffffffffff160217905550600115158173ffffffffffffffffffffffffffffffffffffffff167fb05df283fc0d63b1908f977b7732784e2203a0d2ccd1280cf16706ff62c3516260405160405180910390a35b50565b60008060009054906101000a900473ffffffffffffffffffffffffffffffffffffffff169050816000806101000a81548173ffffffffffffffffffffffffffffffffffffffff021916908373ffffffffffffffffffffffffffffffffffffffff1602179055508173ffffffffffffffffffffffffffffffffffffffff168173ffffffffffffffffffffffffffffffffffffffff167f8be0079c531659141344cd1fd0a4f28419497f9722a3daafe3b4186f6b6457e060405160405180910390a35050565b6000604051905090565b600080fd5b600080fd5b600080fd5b6000601f19601f8301169050919050565b7f4e487b7100000000000000000000000000000000000000000000000000000000600052604160045260246000fd5b610d0382610cba565b810181811067ffffffffffffffff82111715610d2257610d21610ccb565b5b80604052505050565b6000610d35610ca1565b9050610d418282610cfa565b919050565b600067ffffffffffffffff821115610d6157610d60610ccb565b5b602082029050602081019050919050565b600080fd5b600073ffffffffffffffffffffffffffffffffffffffff82169050919050565b6000610da282610d77565b9050919050565b610db281610d97565b8114610dbd57600080fd5b50565b600081359050610dcf81610da9565b92915050565b6000610de8610de384610d46565b610d2b565b90508083825260208201905060208402830185811115610e0b57610e0a610d72565b5b835b81811015610e345780610e208882610dc0565b845260208401935050602081019050610e0d565b5050509392505050565b600082601f830112610e5357610e52610cb5565b5b8135610e63848260208601610dd5565b91505092915050565b600060208284031215610e8257610e81610cab565b5b600082013567ffffffffffffffff811115610ea057610e9f610cb0565b5b610eac84828501610e3e565b91505092915050565b60008115159050919050565b610eca81610eb5565b82525050565b6000602082019050610ee56000830184610ec1565b92915050565b600060208284031215610f0157610f00610cab565b5b6000610f0f84828501610dc0565b91505092915050565b600081519050919050565b600082825260208201905092915050565b6000819050602082019050919050565b610f4d81610d97565b82525050565b6000610f5f8383610f44565b60208301905092915050565b6000602082019050919050565b6000610f8382610f18565b610f8d8185610f23565b9350610f9883610f34565b8060005b83811015610fc9578151610fb08882610f53565b9750610fbb83610f6b565b925050600181019050610f9c565b5085935050505092915050565b60006020820190508181036000830152610ff08184610f78565b905092915050565b61100181610d97565b82525050565b600060208201905061101c6000830184610ff8565b92915050565b6000819050919050565b61103581611022565b811461104057600080fd5b50565b6000813590506110528161102c565b92915050565b60006020828403121561106e5761106d610cab565b5b600061107c84828501611043565b91505092915050565b600082825260208201905092915050565b7f4f776e61626c653a2063616c6c6572206973206e6f7420746865206f776e6572600082015250565b60006110cc602083611085565b91506110d782611096565b602082019050919050565b600060208201905081810360008301526110fb816110bf565b9050919050565b7f4e487b7100000000000000000000000000000000000000000000000000000000600052603260045260246000fd5b7f4e487b7100000000000000000000000000000000000000000000000000000000600052601160045260246000fd5b600061116b82611022565b91507fffffffffffffffffffffffffffffffffffffffffffffffffffffffffffffffff82141561119e5761119d611131565b5b600182019050919050565b7f4f776e61626c653a206e6577206f776e657220697320746865207a65726f206160008201527f6464726573730000000000000000000000000000000000000000000000000000602082015250565b6000611205602683611085565b9150611210826111a9565b604082019050919050565b60006020820190508181036000830152611234816111f8565b9050919050565b600061124682611022565b915061125183611022565b92508282101561126457611263611131565b5b828203905092915050565b7f4e487b7100000000000000000000000000000000000000000000000000000000600052603160045260246000fdfea264697066735822122094c79a12edb74e2a83907208c4779e06d7c5cf6d9080fbcef0edd6682675000f64736f6c634300080c0033",
  "immutableReferences": {},
  "source": "/**\n *Submitted for verification at BscScan.com on 2022-03-03\n */\n\n// File: @openzeppelin/contracts/utils/Context.sol\n\n// OpenZeppelin Contracts v4.4.1 (utils/Context.sol)\n// SPDX-License-Identifier: MIT\n\npragma solidity ^0.8.0;\n\n/**\n * @dev Provides information about the current execution context, including the\n * sender of the transaction and its data. While these are generally available\n * via msg.sender and msg.data, they should not be accessed in such a direct\n * manner, since when dealing with meta-transactions the account sending and\n * paying for execution may not be the actual sender (as far as an application\n * is concerned).\n *\n * This contract is only required for intermediate, library-like contracts.\n */\nabstract contract Context {\n    function _msgSender() internal view virtual returns (address) {\n        return msg.sender;\n    }\n\n    function _msgData() internal view virtual returns (bytes calldata) {\n        return msg.data;\n    }\n}\n\n// File: @openzeppelin/contracts/access/Ownable.sol\n\n// OpenZeppelin Contracts v4.4.1 (access/Ownable.sol)\n\npragma solidity ^0.8.0;\n\n/**\n * @dev Contract module which provides a basic access control mechanism, where\n * there is an account (an owner) that can be granted exclusive access to\n * specific functions.\n *\n * By default, the owner account will be the one that deploys the contract. This\n * can later be changed with {transferOwnership}.\n *\n * This module is used through inheritance. It will make available the modifier\n * `onlyOwner`, which can be applied to your functions to restrict their use to\n * the owner.\n */\nabstract contract Ownable is Context {\n    address private _owner;\n\n    event OwnershipTransferred(\n        address indexed previousOwner,\n        address indexed newOwner\n    );\n\n    /**\n     * @dev Initializes the contract setting the deployer as the initial owner.\n     */\n    constructor() {\n        _transferOwnership(_msgSender());\n    }\n\n    /**\n     * @dev Returns the address of the current owner.\n     */\n    function owner() public view virtual returns (address) {\n        return _owner;\n    }\n\n    /**\n     * @dev Throws if called by any account other than the owner.\n     */\n    modifier onlyOwner() {\n        require(owner() == _msgSender(), \"Ownable: caller is not the owner\");\n        _;\n    }\n\n    /**\n     * @dev Leaves the contract without owner. It will not be possible to call\n     * `onlyOwner` functions anymore. Can only be called by the current owner.\n     *\n     * NOTE: Renouncing ownership will leave the contract without an owner,\n     * thereby removing any functionality that is only available to the owner.\n     */\n    function renounceOwnership() public virtual onlyOwner {\n        _transferOwnership(address(0));\n    }\n\n    /**\n     * @dev Transfers ownership of the contract to a new account (`newOwner`).\n     * Can only be called by the current owner.\n     */\n    function transferOwnership(address newOwner) public virtual onlyOwner {\n        require(\n            newOwner != address(0),\n            \"Ownable: new owner is the zero address\"\n        );\n        _transferOwnership(newOwner);\n    }\n\n    /**\n     * @dev Transfers ownership of the contract to a new account (`newOwner`).\n     * Internal function without access restriction.\n     */\n    function _transferOwnership(address newOwner) internal virtual {\n        address oldOwner = _owner;\n        _owner = newOwner;\n        emit OwnershipTransferred(oldOwner, newOwner);\n    }\n}\n\n// File: contracts/weth.sol\n\npragma solidity ^0.8.12;\n\ninterface IBlacklistManager {\n    function isBalcklisted(address _sender) external view returns (bool);\n\n    function underAttackMode() external view returns (bool);\n\n    function actionAllowed(address _sender) external view returns (bool);\n}\n\ncontract BlacklistManager is IBlacklistManager, Ownable {\n    // Blacklisted users.\n    address[] public blackListedUsers;\n\n    bool public underAttackMode;\n\n    event UnderAttackMode(bool activeated);\n    event BlackListed(address indexed user, bool indexed blacklisted);\n\n    function toggleUnderAttackMode() public onlyOwner {\n        underAttackMode = !underAttackMode;\n        emit UnderAttackMode(underAttackMode);\n    }\n\n    function actionAllowed(address _sender) public view returns (bool) {\n        return (!isBalcklisted(_sender) && !underAttackMode);\n    }\n\n    function isBalcklisted(address _sender) public view returns (bool) {\n        for (uint256 i = 0; i < blackListedUsers.length; i++) {\n            if (_sender == blackListedUsers[i]) {\n                return true;\n            }\n        }\n        return false;\n    }\n\n    function _blackList(address user) private {\n        if (!isBalcklisted(user)) {\n            blackListedUsers.push(user);\n            emit BlackListed(user, true);\n        }\n    }\n\n    function blackList(address user) public onlyOwner {\n        _blackList(user);\n    }\n\n    function blackListBatch(address[] memory _users) public onlyOwner {\n        for (uint256 index = 0; index < _users.length; index++) {\n            _blackList(_users[index]);\n        }\n    }\n\n    function getBlackListedUsers() public view returns (address[] memory) {\n        return blackListedUsers;\n    }\n\n    function _removeBlackList(address _user) private {\n        for (uint256 i = 0; i < blackListedUsers.length; i++) {\n            if (blackListedUsers[i] == _user) {\n                blackListedUsers[\n                    blackListedUsers.length - 1\n                ] = blackListedUsers[i];\n                blackListedUsers.pop();\n                break;\n            }\n        }\n        emit BlackListed(_user, false);\n    }\n\n    function removeBlackList(address _user) public onlyOwner {\n        _removeBlackList(_user);\n    }\n\n    function removeBlackListBatch(address[] memory _users) public onlyOwner {\n        for (uint256 index = 0; index < _users.length; index++) {\n            _removeBlackList(_users[index]);\n        }\n    }\n}\n",
  "sourcePath": "/home/dell/Desktop/Thoughtwin-Projects-Bc/contractCompiler/contracts/black-list-manager-flatten.sol",
  "compiler": {
    "name": "solc",
    "version": "0.8.12+commit.f00d7308.Emscripten.clang"
  },
  "schemaVersion": "3.4.2",
  "updatedAt": "2022-03-03T14:21:18.365Z",
  "devdoc": {
    "kind": "dev",
    "methods": {
      "owner()": {
        "details": "Returns the address of the current owner."
      },
      "renounceOwnership()": {
        "details": "Leaves the contract without owner. It will not be possible to call `onlyOwner` functions anymore. Can only be called by the current owner. NOTE: Renouncing ownership will leave the contract without an owner, thereby removing any functionality that is only available to the owner."
      },
      "transferOwnership(address)": {
        "details": "Transfers ownership of the contract to a new account (`newOwner`). Can only be called by the current owner."
      }
    },
    "version": 1
  },
  "userdoc": {
    "kind": "user",
    "methods": {},
    "version": 1
  }
}