{
  "_format": "hh-sol-artifact-1",
  "contractName": "FlokinomicsNFTMarketplace",
  "sourceName": "contracts/Marketplace.sol",
  "abi": [
    {
      "inputs": [
        {
          "internalType": "address",
          "name": "nftContract_",
          "type": "address"
        },
        {
          "internalType": "address",
          "name": "WBNBAddress_",
          "type": "address"
        },
        {
          "internalType": "address",
          "name": "adminRecoveryAddress_",
          "type": "address"
        },
        {
          "internalType": "address",
          "name": "payableAddress",
          "type": "address"
        }
      ],
      "stateMutability": "nonpayable",
      "type": "constructor"
    },
    {
      "anonymous": false,
      "inputs": [
        {
          "indexed": true,
          "internalType": "uint256",
          "name": "tokenId",
          "type": "uint256"
        },
        {
          "indexed": false,
          "internalType": "address",
          "name": "nftContractAddress",
          "type": "address"
        },
        {
          "indexed": false,
          "internalType": "address",
          "name": "sender",
          "type": "address"
        },
        {
          "indexed": false,
          "internalType": "uint256",
          "name": "value",
          "type": "uint256"
        }
      ],
      "name": "AuctionBid",
      "type": "event"
    },
    {
      "anonymous": false,
      "inputs": [
        {
          "indexed": true,
          "internalType": "uint256",
          "name": "tokenId",
          "type": "uint256"
        },
        {
          "indexed": false,
          "internalType": "address",
          "name": "nftContractAddress",
          "type": "address"
        },
        {
          "indexed": false,
          "internalType": "address",
          "name": "Creator",
          "type": "address"
        }
      ],
      "name": "AuctionCanceled",
      "type": "event"
    },
    {
      "anonymous": false,
      "inputs": [
        {
          "indexed": true,
          "internalType": "uint256",
          "name": "tokenId",
          "type": "uint256"
        },
        {
          "indexed": false,
          "internalType": "uint256",
          "name": "auctionStart",
          "type": "uint256"
        },
        {
          "indexed": false,
          "internalType": "uint256",
          "name": "duration",
          "type": "uint256"
        },
        {
          "indexed": false,
          "internalType": "uint256",
          "name": "reservePrice",
          "type": "uint256"
        },
        {
          "indexed": false,
          "internalType": "string",
          "name": "paymentType",
          "type": "string"
        },
        {
          "indexed": false,
          "internalType": "address",
          "name": "Creator",
          "type": "address"
        }
      ],
      "name": "AuctionCreated",
      "type": "event"
    },
    {
      "anonymous": false,
      "inputs": [
        {
          "indexed": true,
          "internalType": "uint256",
          "name": "tokenId",
          "type": "uint256"
        },
        {
          "indexed": false,
          "internalType": "address",
          "name": "nftContractAddress",
          "type": "address"
        },
        {
          "indexed": false,
          "internalType": "address",
          "name": "Creator",
          "type": "address"
        },
        {
          "indexed": false,
          "internalType": "address",
          "name": "winner",
          "type": "address"
        },
        {
          "indexed": false,
          "internalType": "uint256",
          "name": "amount",
          "type": "uint256"
        },
        {
          "indexed": false,
          "internalType": "address",
          "name": "nftCreator",
          "type": "address"
        }
      ],
      "name": "AuctionEnded",
      "type": "event"
    },
    {
      "anonymous": false,
      "inputs": [
        {
          "indexed": false,
          "internalType": "uint256",
          "name": "nftID",
          "type": "uint256"
        }
      ],
      "name": "Burned",
      "type": "event"
    },
    {
      "anonymous": false,
      "inputs": [
        {
          "indexed": true,
          "internalType": "uint256",
          "name": "tokenId",
          "type": "uint256"
        },
        {
          "indexed": false,
          "internalType": "address",
          "name": "Creator",
          "type": "address"
        },
        {
          "indexed": false,
          "internalType": "uint256",
          "name": "amount",
          "type": "uint256"
        }
      ],
      "name": "CreatorFeePercentTransfer",
      "type": "event"
    },
    {
      "anonymous": false,
      "inputs": [
        {
          "indexed": true,
          "internalType": "address",
          "name": "minter",
          "type": "address"
        },
        {
          "indexed": false,
          "internalType": "uint256",
          "name": "price",
          "type": "uint256"
        },
        {
          "indexed": false,
          "internalType": "uint256",
          "name": "nftID",
          "type": "uint256"
        },
        {
          "indexed": false,
          "internalType": "string",
          "name": "uri",
          "type": "string"
        },
        {
          "indexed": false,
          "internalType": "bool",
          "name": "status",
          "type": "bool"
        }
      ],
      "name": "Minted",
      "type": "event"
    },
    {
      "anonymous": false,
      "inputs": [
        {
          "indexed": true,
          "internalType": "address",
          "name": "owner",
          "type": "address"
        },
        {
          "indexed": false,
          "internalType": "uint256",
          "name": "nftID",
          "type": "uint256"
        },
        {
          "indexed": false,
          "internalType": "bool",
          "name": "isListed",
          "type": "bool"
        }
      ],
      "name": "NftListStatus",
      "type": "event"
    },
    {
      "anonymous": false,
      "inputs": [
        {
          "indexed": true,
          "internalType": "address",
          "name": "previousOwner",
          "type": "address"
        },
        {
          "indexed": true,
          "internalType": "address",
          "name": "newOwner",
          "type": "address"
        }
      ],
      "name": "OwnershipTransferred",
      "type": "event"
    },
    {
      "anonymous": false,
      "inputs": [
        {
          "indexed": false,
          "internalType": "address",
          "name": "account",
          "type": "address"
        }
      ],
      "name": "Paused",
      "type": "event"
    },
    {
      "anonymous": false,
      "inputs": [
        {
          "indexed": true,
          "internalType": "address",
          "name": "owner",
          "type": "address"
        },
        {
          "indexed": false,
          "internalType": "uint256",
          "name": "oldPrice",
          "type": "uint256"
        },
        {
          "indexed": false,
          "internalType": "uint256",
          "name": "newPrice",
          "type": "uint256"
        },
        {
          "indexed": false,
          "internalType": "uint256",
          "name": "nftID",
          "type": "uint256"
        }
      ],
      "name": "PriceUpdate",
      "type": "event"
    },
    {
      "anonymous": false,
      "inputs": [
        {
          "indexed": true,
          "internalType": "address",
          "name": "previousOwner",
          "type": "address"
        },
        {
          "indexed": true,
          "internalType": "address",
          "name": "newOwner",
          "type": "address"
        },
        {
          "indexed": false,
          "internalType": "uint256",
          "name": "price",
          "type": "uint256"
        },
        {
          "indexed": false,
          "internalType": "uint256",
          "name": "nftID",
          "type": "uint256"
        }
      ],
      "name": "Purchase",
      "type": "event"
    },
    {
      "anonymous": false,
      "inputs": [
        {
          "indexed": false,
          "internalType": "address",
          "name": "",
          "type": "address"
        },
        {
          "indexed": false,
          "internalType": "uint256",
          "name": "",
          "type": "uint256"
        }
      ],
      "name": "Received",
      "type": "event"
    },
    {
      "anonymous": false,
      "inputs": [
        {
          "indexed": false,
          "internalType": "uint256",
          "name": "amount",
          "type": "uint256"
        },
        {
          "indexed": false,
          "internalType": "address",
          "name": "wallet",
          "type": "address"
        }
      ],
      "name": "TokensWithdrawn",
      "type": "event"
    },
    {
      "anonymous": false,
      "inputs": [
        {
          "indexed": false,
          "internalType": "address",
          "name": "account",
          "type": "address"
        }
      ],
      "name": "Unpaused",
      "type": "event"
    },
    {
      "anonymous": false,
      "inputs": [
        {
          "indexed": false,
          "internalType": "uint256",
          "name": "amount",
          "type": "uint256"
        },
        {
          "indexed": false,
          "internalType": "address",
          "name": "wallet",
          "type": "address"
        }
      ],
      "name": "Withdrawn",
      "type": "event"
    },
    {
      "inputs": [],
      "name": "MIN_BID_INCREMENT_PERCENT",
      "outputs": [
        {
          "internalType": "uint8",
          "name": "",
          "type": "uint8"
        }
      ],
      "stateMutability": "view",
      "type": "function"
    },
    {
      "inputs": [],
      "name": "TIME_BUFFER",
      "outputs": [
        {
          "internalType": "uint16",
          "name": "",
          "type": "uint16"
        }
      ],
      "stateMutability": "view",
      "type": "function"
    },
    {
      "inputs": [],
      "name": "WBNBAddress",
      "outputs": [
        {
          "internalType": "address",
          "name": "",
          "type": "address"
        }
      ],
      "stateMutability": "view",
      "type": "function"
    },
    {
      "inputs": [
        {
          "internalType": "bool",
          "name": "_isNew",
          "type": "bool"
        },
        {
          "internalType": "uint256[]",
          "name": "_newtokenIds",
          "type": "uint256[]"
        },
        {
          "internalType": "address[]",
          "name": "_creators",
          "type": "address[]"
        },
        {
          "internalType": "uint256[]",
          "name": "_prices",
          "type": "uint256[]"
        },
        {
          "internalType": "address[]",
          "name": "_owners",
          "type": "address[]"
        },
        {
          "internalType": "uint256[]",
          "name": "_royalties",
          "type": "uint256[]"
        },
        {
          "internalType": "bool[]",
          "name": "_listedMap",
          "type": "bool[]"
        }
      ],
      "name": "addCreatorMap",
      "outputs": [],
      "stateMutability": "nonpayable",
      "type": "function"
    },
    {
      "inputs": [],
      "name": "adminRecoveryAddress",
      "outputs": [
        {
          "internalType": "address",
          "name": "",
          "type": "address"
        }
      ],
      "stateMutability": "view",
      "type": "function"
    },
    {
      "inputs": [],
      "name": "adminRecoveryEnabled",
      "outputs": [
        {
          "internalType": "bool",
          "name": "",
          "type": "bool"
        }
      ],
      "stateMutability": "view",
      "type": "function"
    },
    {
      "inputs": [
        {
          "internalType": "uint256",
          "name": "",
          "type": "uint256"
        }
      ],
      "name": "auctions",
      "outputs": [
        {
          "internalType": "uint256",
          "name": "amount",
          "type": "uint256"
        },
        {
          "internalType": "uint256",
          "name": "duration",
          "type": "uint256"
        },
        {
          "internalType": "uint256",
          "name": "firstBidTime",
          "type": "uint256"
        },
        {
          "internalType": "uint256",
          "name": "reservePrice",
          "type": "uint256"
        },
        {
          "internalType": "string",
          "name": "paymentType",
          "type": "string"
        },
        {
          "internalType": "uint8",
          "name": "CreatorFeePercent",
          "type": "uint8"
        },
        {
          "internalType": "address",
          "name": "Creator",
          "type": "address"
        },
        {
          "internalType": "address payable",
          "name": "bidder",
          "type": "address"
        },
        {
          "internalType": "address payable",
          "name": "fundsRecipient",
          "type": "address"
        }
      ],
      "stateMutability": "view",
      "type": "function"
    },
    {
      "inputs": [
        {
          "internalType": "uint256",
          "name": "_id",
          "type": "uint256"
        }
      ],
      "name": "burn",
      "outputs": [],
      "stateMutability": "nonpayable",
      "type": "function"
    },
    {
      "inputs": [
        {
          "internalType": "uint256",
          "name": "_id",
          "type": "uint256"
        },
        {
          "internalType": "uint256",
          "name": "_price",
          "type": "uint256"
        },
        {
          "internalType": "string",
          "name": "paymentType",
          "type": "string"
        }
      ],
      "name": "buy",
      "outputs": [],
      "stateMutability": "payable",
      "type": "function"
    },
    {
      "inputs": [
        {
          "internalType": "uint256",
          "name": "_id",
          "type": "uint256"
        },
        {
          "internalType": "address",
          "name": "receiver",
          "type": "address"
        },
        {
          "internalType": "uint256",
          "name": "_price",
          "type": "uint256"
        },
        {
          "internalType": "string",
          "name": "paymentType",
          "type": "string"
        },
        {
          "internalType": "uint256",
          "name": "_royalty",
          "type": "uint256"
        },
        {
          "internalType": "string",
          "name": "_tokenUri",
          "type": "string"
        }
      ],
      "name": "buyNew",
      "outputs": [],
      "stateMutability": "payable",
      "type": "function"
    },
    {
      "inputs": [
        {
          "internalType": "uint256",
          "name": "tokenId",
          "type": "uint256"
        }
      ],
      "name": "cancelAuction",
      "outputs": [],
      "stateMutability": "nonpayable",
      "type": "function"
    },
    {
      "inputs": [
        {
          "internalType": "uint256",
          "name": "_id",
          "type": "uint256"
        }
      ],
      "name": "closeTrade",
      "outputs": [],
      "stateMutability": "nonpayable",
      "type": "function"
    },
    {
      "inputs": [
        {
          "internalType": "uint256",
          "name": "tokenId",
          "type": "uint256"
        },
        {
          "internalType": "bool",
          "name": "_isNew",
          "type": "bool"
        },
        {
          "internalType": "string",
          "name": "_tokenUri",
          "type": "string"
        },
        {
          "internalType": "uint256",
          "name": "duration",
          "type": "uint256"
        },
        {
          "internalType": "uint256",
          "name": "reservePrice",
          "type": "uint256"
        },
        {
          "internalType": "string",
          "name": "paymentType",
          "type": "string"
        },
        {
          "internalType": "address",
          "name": "Creator",
          "type": "address"
        }
      ],
      "name": "createAuction",
      "outputs": [],
      "stateMutability": "nonpayable",
      "type": "function"
    },
    {
      "inputs": [
        {
          "internalType": "uint256",
          "name": "tokenId",
          "type": "uint256"
        },
        {
          "internalType": "string",
          "name": "paymentType",
          "type": "string"
        },
        {
          "internalType": "uint256",
          "name": "amount",
          "type": "uint256"
        }
      ],
      "name": "createBid",
      "outputs": [],
      "stateMutability": "payable",
      "type": "function"
    },
    {
      "inputs": [],
      "name": "creator",
      "outputs": [
        {
          "internalType": "address",
          "name": "",
          "type": "address"
        }
      ],
      "stateMutability": "view",
      "type": "function"
    },
    {
      "inputs": [
        {
          "internalType": "uint256",
          "name": "",
          "type": "uint256"
        }
      ],
      "name": "creatorMap",
      "outputs": [
        {
          "internalType": "address",
          "name": "",
          "type": "address"
        }
      ],
      "stateMutability": "view",
      "type": "function"
    },
    {
      "inputs": [
        {
          "internalType": "uint256",
          "name": "tokenId",
          "type": "uint256"
        }
      ],
      "name": "endAuction",
      "outputs": [],
      "stateMutability": "nonpayable",
      "type": "function"
    },
    {
      "inputs": [],
      "name": "getCreator",
      "outputs": [],
      "stateMutability": "nonpayable",
      "type": "function"
    },
    {
      "inputs": [],
      "name": "getVersion",
      "outputs": [
        {
          "internalType": "uint256",
          "name": "version",
          "type": "uint256"
        }
      ],
      "stateMutability": "pure",
      "type": "function"
    },
    {
      "inputs": [
        {
          "internalType": "uint256",
          "name": "",
          "type": "uint256"
        }
      ],
      "name": "listedMap",
      "outputs": [
        {
          "internalType": "bool",
          "name": "",
          "type": "bool"
        }
      ],
      "stateMutability": "view",
      "type": "function"
    },
    {
      "inputs": [],
      "name": "marketFeeForBNB",
      "outputs": [
        {
          "internalType": "uint256",
          "name": "",
          "type": "uint256"
        }
      ],
      "stateMutability": "view",
      "type": "function"
    },
    {
      "inputs": [],
      "name": "marketFeeForToken",
      "outputs": [
        {
          "internalType": "uint256",
          "name": "",
          "type": "uint256"
        }
      ],
      "stateMutability": "view",
      "type": "function"
    },
    {
      "inputs": [],
      "name": "nftContract",
      "outputs": [
        {
          "internalType": "address",
          "name": "",
          "type": "address"
        }
      ],
      "stateMutability": "view",
      "type": "function"
    },
    {
      "inputs": [
        {
          "internalType": "uint256",
          "name": "_id",
          "type": "uint256"
        },
        {
          "internalType": "uint256",
          "name": "_price",
          "type": "uint256"
        },
        {
          "internalType": "string",
          "name": "paymentType",
          "type": "string"
        }
      ],
      "name": "openTrade",
      "outputs": [],
      "stateMutability": "nonpayable",
      "type": "function"
    },
    {
      "inputs": [],
      "name": "owner",
      "outputs": [
        {
          "internalType": "address",
          "name": "",
          "type": "address"
        }
      ],
      "stateMutability": "view",
      "type": "function"
    },
    {
      "inputs": [
        {
          "internalType": "uint256",
          "name": "",
          "type": "uint256"
        }
      ],
      "name": "ownerMap",
      "outputs": [
        {
          "internalType": "address",
          "name": "",
          "type": "address"
        }
      ],
      "stateMutability": "view",
      "type": "function"
    },
    {
      "inputs": [],
      "name": "pauseContract",
      "outputs": [],
      "stateMutability": "nonpayable",
      "type": "function"
    },
    {
      "inputs": [],
      "name": "paused",
      "outputs": [
        {
          "internalType": "bool",
          "name": "",
          "type": "bool"
        }
      ],
      "stateMutability": "view",
      "type": "function"
    },
    {
      "inputs": [
        {
          "internalType": "uint256",
          "name": "",
          "type": "uint256"
        }
      ],
      "name": "paymentTokenMap",
      "outputs": [
        {
          "internalType": "string",
          "name": "",
          "type": "string"
        }
      ],
      "stateMutability": "view",
      "type": "function"
    },
    {
      "inputs": [
        {
          "internalType": "string",
          "name": "",
          "type": "string"
        }
      ],
      "name": "payoutAddressMap",
      "outputs": [
        {
          "internalType": "address",
          "name": "",
          "type": "address"
        }
      ],
      "stateMutability": "view",
      "type": "function"
    },
    {
      "inputs": [
        {
          "internalType": "uint256",
          "name": "",
          "type": "uint256"
        }
      ],
      "name": "price",
      "outputs": [
        {
          "internalType": "uint256",
          "name": "",
          "type": "uint256"
        }
      ],
      "stateMutability": "view",
      "type": "function"
    },
    {
      "inputs": [
        {
          "internalType": "uint256",
          "name": "amount",
          "type": "uint256"
        }
      ],
      "name": "recoverBNB",
      "outputs": [
        {
          "internalType": "bool",
          "name": "success",
          "type": "bool"
        }
      ],
      "stateMutability": "nonpayable",
      "type": "function"
    },
    {
      "inputs": [
        {
          "internalType": "uint256",
          "name": "tokenId",
          "type": "uint256"
        }
      ],
      "name": "recoverNFT",
      "outputs": [],
      "stateMutability": "nonpayable",
      "type": "function"
    },
    {
      "inputs": [],
      "name": "renounceOwnership",
      "outputs": [],
      "stateMutability": "nonpayable",
      "type": "function"
    },
    {
      "inputs": [
        {
          "internalType": "uint256",
          "name": "",
          "type": "uint256"
        }
      ],
      "name": "royaltyMap",
      "outputs": [
        {
          "internalType": "uint256",
          "name": "",
          "type": "uint256"
        }
      ],
      "stateMutability": "view",
      "type": "function"
    },
    {
      "inputs": [
        {
          "internalType": "uint256",
          "name": "_newMarketFeeForBNB",
          "type": "uint256"
        }
      ],
      "name": "setMarketFeeForBNB",
      "outputs": [],
      "stateMutability": "nonpayable",
      "type": "function"
    },
    {
      "inputs": [
        {
          "internalType": "uint256",
          "name": "_newMarketFeeForToken",
          "type": "uint256"
        }
      ],
      "name": "setMarketFeeForToken",
      "outputs": [],
      "stateMutability": "nonpayable",
      "type": "function"
    },
    {
      "inputs": [
        {
          "internalType": "string",
          "name": "_paymentToken",
          "type": "string"
        },
        {
          "internalType": "address",
          "name": "_tokenAddress",
          "type": "address"
        },
        {
          "internalType": "address",
          "name": "_payoutAddress",
          "type": "address"
        }
      ],
      "name": "setTokenAddress",
      "outputs": [],
      "stateMutability": "nonpayable",
      "type": "function"
    },
    {
      "inputs": [
        {
          "internalType": "string",
          "name": "",
          "type": "string"
        }
      ],
      "name": "tokenAddressMap",
      "outputs": [
        {
          "internalType": "address",
          "name": "",
          "type": "address"
        }
      ],
      "stateMutability": "view",
      "type": "function"
    },
    {
      "inputs": [
        {
          "internalType": "address",
          "name": "newOwner",
          "type": "address"
        }
      ],
      "name": "transferOwnership",
      "outputs": [],
      "stateMutability": "nonpayable",
      "type": "function"
    },
    {
      "inputs": [],
      "name": "turnOffAdminRecovery",
      "outputs": [],
      "stateMutability": "nonpayable",
      "type": "function"
    },
    {
      "inputs": [],
      "name": "unpauseContract",
      "outputs": [],
      "stateMutability": "nonpayable",
      "type": "function"
    },
    {
      "inputs": [
        {
          "internalType": "uint256",
          "name": "_tokenId",
          "type": "uint256"
        },
        {
          "internalType": "bool",
          "name": "shouldBeListed",
          "type": "bool"
        }
      ],
      "name": "updateListingStatus",
      "outputs": [
        {
          "internalType": "bool",
          "name": "",
          "type": "bool"
        }
      ],
      "stateMutability": "nonpayable",
      "type": "function"
    },
    {
      "inputs": [
        {
          "internalType": "uint256",
          "name": "_tokenId",
          "type": "uint256"
        },
        {
          "internalType": "uint256",
          "name": "_price",
          "type": "uint256"
        },
        {
          "internalType": "string",
          "name": "paymentType",
          "type": "string"
        }
      ],
      "name": "updatePrice",
      "outputs": [
        {
          "internalType": "bool",
          "name": "",
          "type": "bool"
        }
      ],
      "stateMutability": "nonpayable",
      "type": "function"
    },
    {
      "inputs": [],
      "name": "withdraw",
      "outputs": [],
      "stateMutability": "nonpayable",
      "type": "function"
    },
    {
      "inputs": [
        {
          "internalType": "string",
          "name": "_tokenName",
          "type": "string"
        },
        {
          "internalType": "uint256",
          "name": "_amount",
          "type": "uint256"
        }
      ],
      "name": "withdrawToken",
      "outputs": [],
      "stateMutability": "nonpayable",
      "type": "function"
    },
    {
      "stateMutability": "payable",
      "type": "receive"
    }
  ],
  "bytecode": "0x60e06040526001600055603c600355601e6004553480156200002057600080fd5b50604051620059493803806200594983398101604081905262000043916200026b565b6200004e33620001fc565b6040516301ffc9a760e01b81526380ac58cd60e01b60048201526001600160a01b038516906301ffc9a79060240160206040518083038186803b1580156200009557600080fd5b505afa158015620000aa573d6000803e3d6000fd5b505050506040513d601f19601f82011682018060405250810190620000d09190620002c7565b620001475760405162461bcd60e51b815260206004820152603f60248201527f436f6e7472616374206174206e6674436f6e74726163745f206164647265737360448201527f20646f6573206e6f7420737570706f7274204e465420696e7465726661636500606482015260840160405180910390fd5b6001600160601b0319606085811b821660805284811b821660a05283901b1660c0526040518190600e906200018890652327aa25a2a760d11b815260060190565b9081526040805191829003602001822080546001600160a01b039485166001600160a01b0319918216179091556221272160e91b8352600e6003840152905191829003602301909120805493909216921691909117905550506005805461ffff60a01b1916600160a01b17905550620002f0565b600180546001600160a01b038381166001600160a01b0319831681179093556040519116919082907f8be0079c531659141344cd1fd0a4f28419497f9722a3daafe3b4186f6b6457e090600090a35050565b80516001600160a01b03811681146200026657600080fd5b919050565b6000806000806080858703121562000281578384fd5b6200028c856200024e565b93506200029c602086016200024e565b9250620002ac604086016200024e565b9150620002bc606086016200024e565b905092959194509250565b600060208284031215620002d9578081fd5b81518015158114620002e9578182fd5b9392505050565b60805160601c60a05160601c60c05160601c615540620004096000396000818161099701528181610db7015281816117a1015281816120d701528181612347015281816124f2015281816125ad01528181612a9f01528181612e280152818161316d0152818161351401528181613a7901528181613b8b0152818161464601526146e90152600081816105f801528181614798015261482d01526000818161090301528181610cc4015281816115c8015281816116f701528181612420015281816125dc0152818161283b015281816128d80152818161295b01528181613225015281816133fa015281816138e90152818161399d01528181613f2e0152818161443c015281816144c0015261498001526155406000f3fe6080604052600436106103015760003560e01c80638da5cb5b1161018f578063b33712c5116100e1578063ca1ce2af1161008a578063f2fde38b11610064578063f2fde38b14610945578063f603939b14610965578063fafe0d1f1461098557610340565b8063ca1ce2af146108c4578063d56d229d146108f1578063f27da5e51461092557610340565b8063bc8ba28f116100bb578063bc8ba28f1461084d578063bc9968191461087d578063c97a413a146108a457610340565b8063b33712c5146107f8578063b9a2de3a1461080d578063ba8a12b41461082d57610340565b806398214bcb116101435780639a8bfa2b1161011d5780639a8bfa2b14610775578063a39cea84146107ab578063a6e9d546146107cb57610340565b806398214bcb1461072d57806398c055911461074d57806399331fdf1461076257610340565b8063941d66db11610174578063941d66db146106ac5780639486e0a4146106ed57806396b5a7551461070d57610340565b80638da5cb5b146106785780639037bab21461069657610340565b8063439766ce116102535780636c32e2fe116101fc57806371602e9a116101d657806371602e9a1461062f5780637788a38714610642578063892d5d941461066257610340565b80636c32e2fe146105c657806370081fb9146105e6578063715018a61461061a57610340565b8063571a26a01161022d578063571a26a0146105305780635c975abb146105655780636749b0ba1461058557610340565b8063439766ce146104c257806353653131146104d757806353a636dd1461050057610340565b80631cf57dc5116102b557806338a4cb5b1161028f57806338a4cb5b146104575780633ccfd60b1461048d57806342966c68146104a257610340565b80631cf57dc5146103f757806326a49e371461041757806333209e651461044457610340565b80630d8e6e2c116102e65780630d8e6e2c146103a45780630ee2cb10146103c257806317aa7f03146103d757610340565b806302d05d3f146103455780630d6b33781461038257610340565b3661034057604080513381523460208201527f88a5966d370b9919b20f3e2c13ff65706f196a4e32cc2c12bf57088f88525874910160405180910390a1005b600080fd5b34801561035157600080fd5b50600554610365906001600160a01b031681565b6040516001600160a01b0390911681526020015b60405180910390f35b34801561038e57600080fd5b506103a261039d366004614f7c565b6109b9565b005b3480156103b057600080fd5b5060015b604051908152602001610379565b3480156103ce57600080fd5b506103a2610a6d565b3480156103e357600080fd5b506103a26103f2366004614f7c565b610ab0565b34801561040357600080fd5b506103a261041236600461506a565b610b5f565b34801561042357600080fd5b506103b4610432366004614f7c565b60066020526000908152604090205481565b6103a261045236600461510f565b610f0f565b34801561046357600080fd5b50610365610472366004614f7c565b6009602052600090815260409020546001600160a01b031681565b34801561049957600080fd5b506103a261163b565b3480156104ae57600080fd5b506103a26104bd366004614f7c565b6116c8565b3480156104ce57600080fd5b506103a261179f565b3480156104e357600080fd5b506104ed61038481565b60405161ffff9091168152602001610379565b34801561050c57600080fd5b5061052061051b36600461515d565b611882565b6040519015158152602001610379565b34801561053c57600080fd5b5061055061054b366004614f7c565b61196b565b60405161037999989796959493929190615312565b34801561057157600080fd5b50610520600554600160a81b900460ff1690565b34801561059157600080fd5b506103656105a0366004614e9c565b8051602081830181018051600e825292820191909301209152546001600160a01b031681565b3480156105d257600080fd5b506103a26105e1366004614d9c565b611a4f565b3480156105f257600080fd5b506103657f000000000000000000000000000000000000000000000000000000000000000081565b34801561062657600080fd5b506103a2611f34565b6103a261063d366004614fac565b611f9a565b34801561064e57600080fd5b50610520600554600160a01b900460ff1690565b34801561066e57600080fd5b506103b460035481565b34801561068457600080fd5b506001546001600160a01b0316610365565b3480156106a257600080fd5b506103b460045481565b3480156106b857600080fd5b506103656106c7366004614e9c565b8051602081830181018051600c825292820191909301209152546001600160a01b031681565b3480156106f957600080fd5b506103a2610708366004614f7c565b6124f0565b34801561071957600080fd5b506103a2610728366004614f7c565b61263b565b34801561073957600080fd5b5061052061074836600461503b565b612942565b34801561075957600080fd5b506103a2612a9d565b6103a261077036600461515d565b612b67565b34801561078157600080fd5b50610365610790366004614f7c565b600b602052600090815260409020546001600160a01b031681565b3480156107b757600080fd5b506103a26107c6366004614f7c565b61330f565b3480156107d757600080fd5b506103b46107e6366004614f7c565b600a6020526000908152604090205481565b34801561080457600080fd5b506103a2613512565b34801561081957600080fd5b506103a2610828366004614f7c565b6135ef565b34801561083957600080fd5b506103a2610848366004614ed7565b613fb5565b34801561085957600080fd5b50610520610868366004614f7c565b60076020526000908152604090205460ff1681565b34801561088957600080fd5b50610892600a81565b60405160ff9091168152602001610379565b3480156108b057600080fd5b506103a26108bf366004614f39565b614097565b3480156108d057600080fd5b506108e46108df366004614f7c565b6142a8565b604051610379919061528e565b3480156108fd57600080fd5b506103657f000000000000000000000000000000000000000000000000000000000000000081565b34801561093157600080fd5b506103a261094036600461515d565b614342565b34801561095157600080fd5b506103a2610960366004614d48565b614563565b34801561097157600080fd5b50610520610980366004614f7c565b614642565b34801561099157600080fd5b506103657f000000000000000000000000000000000000000000000000000000000000000081565b6001546001600160a01b03163314610a185760405162461bcd60e51b815260206004820181905260248201527f4f776e61626c653a2063616c6c6572206973206e6f7420746865206f776e657260448201526064015b60405180910390fd5b60018111610a685760405162461bcd60e51b815260206004820152601b60248201527f496e76616c6964204d61726b657446656520466f7220546f6b656e00000000006044820152606401610a0f565b600455565b6005546040516001600160a01b0390911681527f62e78cea01bee320cd4e420270b5ea74000d11b0c9f74754ebdbfc544b05a258906020015b60405180910390a1565b6001546001600160a01b03163314610b0a5760405162461bcd60e51b815260206004820181905260248201527f4f776e61626c653a2063616c6c6572206973206e6f7420746865206f776e65726044820152606401610a0f565b60018111610b5a5760405162461bcd60e51b815260206004820152601960248201527f496e76616c6964204d61726b657446656520466f7220424e42000000000000006044820152606401610a0f565b600355565b6001600080828254610b7191906153cb565b9091555050600054610b8c600554600160a81b900460ff1690565b15610bce5760405162461bcd60e51b815260206004820152601260248201527110dbdb9d1c9858dd081a5cc81c185d5cd95960721b6044820152606401610a0f565b87610bd881614714565b610c245760405162461bcd60e51b815260206004820152601660248201527f41756374696f6e20616c726561647920657869737473000000000000000000006044820152606401610a0f565b6001600160a01b038316610c3757600080fd5b8715610d3357610c4b600280546001019055565b6000610c5660025490565b60008181526006602090815260408083208a9055600d82529091208751929c508c9350610c87929091880190614ac6565b5060008a8152600960205260409081902080546001600160a01b0319166001600160a01b0387811691909117909155905163399f900b60e21b81527f00000000000000000000000000000000000000000000000000000000000000009091169063e67e402c90610cff908d9033908d906004016152a1565b600060405180830381600087803b158015610d1957600080fd5b505af1158015610d2d573d6000803e3d6000fd5b50505050505b6000898152600b6020526040902080546001600160a01b03191633179055610d5c898686614342565b600042905060405180610120016040528060008152602001888152602001828152602001878152602001868152602001603260ff168152602001856001600160a01b0316815260200160006001600160a01b031681526020017f00000000000000000000000000000000000000000000000000000000000000006001600160a01b0316815250600860008c8152602001908152602001600020600082015181600001556020820151816001015560408201518160020155606082015181600301556080820151816004019080519060200190610e39929190614ac6565b5060a082015160058201805460c085015160ff90931674ffffffffffffffffffffffffffffffffffffffffff19909116176101006001600160a01b0393841681029190911790915560e08401516006840180546001600160a01b03199081169285169290921790559301516007909201805490931691161790556040518a907faf28756bc1e562d40cb95e5867314a58926ea413130138ca11b3b2d6db787c6190610eed9084908b908b908b908b906152d2565b60405180910390a250506000548114610f0557600080fd5b5050505050505050565b6001600080828254610f2191906153cb565b9091555050600054610f3c600554600160a81b900460ff1690565b15610f7e5760405162461bcd60e51b815260206004820152601260248201527110dbdb9d1c9858dd081a5cc81c185d5cd95960721b6044820152606401610a0f565b83610f8881614714565b15610fd55760405162461bcd60e51b815260206004820152601560248201527f41756374696f6e20646f65736e277420657869737400000000000000000000006044820152606401610a0f565b60008581526008602052604090206002015485901580610ffc5750610ff98161473b565b42105b6110485760405162461bcd60e51b815260206004820152600f60248201527f41756374696f6e206578706972656400000000000000000000000000000000006044820152606401610a0f565b600084116110985760405162461bcd60e51b815260206004820152601d60248201527f416d6f756e74206d7573742062652067726561746572207468616e20300000006044820152606401610a0f565b60008681526008602090815260409182902091516110ba9260040191016151f3565b60405160208183030381529060405280519060200120856040516020016110e191906151d7565b60405160208183030381529060405280519060200120146111445760405162461bcd60e51b815260206004820152601d60248201527f5061796d656e7454797065206973206e6f74206d69736d6174636865640000006044820152606401610a0f565b6040516221272160e91b6020820152602301604051602081830303815290604052805190602001208560405160200161117d91906151d7565b6040516020818303038152906040528051906020012014156111ed573484146111e85760405162461bcd60e51b815260206004820152601e60248201527f416d6f756e7420646f65736e277420657175616c206d73672e76616c756500006044820152606401610a0f565b6112cf565b600c856040516111fd91906151d7565b908152604051908190036020018120546370a0823160e01b82523360048301526001600160a01b0316906370a082319060240160206040518083038186803b15801561124857600080fd5b505afa15801561125c573d6000803e3d6000fd5b505050506040513d601f19601f820116820180604052508101906112809190614f94565b8410156112cf5760405162461bcd60e51b815260206004820152601a60248201527f496e73756666696369656e7420746f6b656e2062616c616e63650000000000006044820152606401610a0f565b600086815260086020526040902054611348576000868152600860205260409020600301548410156113435760405162461bcd60e51b815260206004820152601d60248201527f4d7573742062696420726573657276655072696365206f72206d6f72650000006044820152606401610a0f565b611536565b600086815260086020526040902054611388906113739060649061136d90600a61475d565b90614770565b6000888152600860205260409020549061477c565b8410156113fd5760405162461bcd60e51b815260206004820152603f60248201527f4d75737420626964206d6f7265207468616e206c61737420626964206279204d60448201527f494e5f4249445f494e4352454d454e545f50455243454e5420616d6f756e74006064820152608401610a0f565b6040516221272160e91b6020820152602301604051602081830303815290604052805190602001208560405160200161143691906151d7565b60405160208183030381529060405280519060200120141561147a57600086815260086020526040902060068101549054611343916001600160a01b031690614788565b600c8560405161148a91906151d7565b90815260408051602092819003830181205460008a81526008909452919092206006810154905463a9059cbb60e01b84526001600160a01b0391821660048501526024840152169063a9059cbb90604401602060405180830381600087803b1580156114f557600080fd5b505af1158015611509573d6000803e3d6000fd5b505050506040513d601f19601f8201168201806040525081019061152d9190614d80565b61153657600080fd5b600086815260086020526040902084815560060180546001600160a01b031916331790556115664261038461477c565b61156f8761473b565b10156115ba576115936115818761473b565b61158d4261038461477c565b906148ad565b600087815260086020526040812060010180549091906115b49084906153cb565b90915550505b604080516001600160a01b037f000000000000000000000000000000000000000000000000000000000000000016815233602082015290810185905286907f3bb6f40a8aeb5dda33c401527cd8f6bd335757d2b1ed2827f0321a090c66b8249060600160405180910390a25050600054811461163557600080fd5b50505050565b6001546001600160a01b031633146116955760405162461bcd60e51b815260206004820181905260248201527f4f776e61626c653a2063616c6c6572206973206e6f7420746865206f776e65726044820152606401610a0f565b6040514790339082156108fc029083906000818181858888f193505050501580156116c4573d6000803e3d6000fd5b5050565b6040517f42966c68000000000000000000000000000000000000000000000000000000008152600481018290527f00000000000000000000000000000000000000000000000000000000000000006001600160a01b0316906342966c6890602401600060405180830381600087803b15801561174357600080fd5b505af1158015611757573d6000803e3d6000fd5b50505060009182525060096020908152604080832080546001600160a01b0319908116909155600a8352818420849055600b8352818420805490911690556006909152812055565b7f00000000000000000000000000000000000000000000000000000000000000006001600160a01b0316331480156117e557506117e5600554600160a01b900460ff1690565b61183f5760405162461bcd60e51b815260206004820152602560248201527f43616c6c657220646f6573206e6f7420686176652061646d696e2070726976696044820152646c6567657360d81b6064820152608401610a0f565b6005805460ff60a81b1916600160a81b1790556040513381527f62e78cea01bee320cd4e420270b5ea74000d11b0c9f74754ebdbfc544b05a25890602001610aa6565b600083815260066020908152604080832054600b9092528220546001600160a01b031633146118f35760405162461bcd60e51b815260206004820152601c60248201527f4572726f722c20796f7520617265206e6f7420746865206f776e6572000000006044820152606401610a0f565b6000858152600660209081526040808320879055600d8252909120845161191c92860190614ac6565b50604080518281526020810186905290810186905233907f8647dab5101cbe18afb171756e9753802f9d66725bf2346b079b8b1a275e01169060600160405180910390a2506001949350505050565b6008602052600090815260409020805460018201546002830154600384015460048501805494959394929391926119a190615465565b80601f01602080910402602001604051908101604052809291908181526020018280546119cd90615465565b8015611a1a5780601f106119ef57610100808354040283529160200191611a1a565b820191906000526020600020905b8154815290600101906020018083116119fd57829003601f168201915b50505060058401546006850154600790950154939460ff8216946001600160a01b036101009093048316945090821692501689565b6001546001600160a01b03163314611aa95760405162461bcd60e51b815260206004820181905260248201527f4f776e61626c653a2063616c6c6572206973206e6f7420746865206f776e65726044820152606401610a0f565b8451865114611b205760405162461bcd60e51b815260206004820152602860248201527f746f6b656e49447320616e642063726561746f727320617265206e6f74206d6960448201527f736d6174636865640000000000000000000000000000000000000000000000006064820152608401610a0f565b8351865114611b815760405162461bcd60e51b815260206004820152602760248201527f746f6b656e49447320616e64205f70726963657320617265206e6f74206d69736044820152661b585d18da195960ca1b6064820152608401610a0f565b8251865114611be25760405162461bcd60e51b815260206004820152602760248201527f746f6b656e49447320616e64205f6f776e65727320617265206e6f74206d69736044820152661b585d18da195960ca1b6064820152608401610a0f565b8151865114611c465760405162461bcd60e51b815260206004820152602a60248201527f746f6b656e49447320616e64205f726f79616c7469657320617265206e6f74206044820152691b5a5cdb585d18da195960b21b6064820152608401610a0f565b8051865114611caa5760405162461bcd60e51b815260206004820152602a60248201527f746f6b656e49447320616e64205f6c69737465644d617020617265206e6f74206044820152691b5a5cdb585d18da195960b21b6064820152608401610a0f565b8615611cb65760006002555b60005b8651811015610f0557611cd0600280546001019055565b858181518110611cf057634e487b7160e01b600052603260045260246000fd5b602002602001015160096000898481518110611d1c57634e487b7160e01b600052603260045260246000fd5b6020026020010151815260200190815260200160002060006101000a8154816001600160a01b0302191690836001600160a01b03160217905550848181518110611d7657634e487b7160e01b600052603260045260246000fd5b602002602001015160066000898481518110611da257634e487b7160e01b600052603260045260246000fd5b6020026020010151815260200190815260200160002081905550838181518110611ddc57634e487b7160e01b600052603260045260246000fd5b6020026020010151600b6000898481518110611e0857634e487b7160e01b600052603260045260246000fd5b6020026020010151815260200190815260200160002060006101000a8154816001600160a01b0302191690836001600160a01b03160217905550828181518110611e6257634e487b7160e01b600052603260045260246000fd5b6020026020010151600a6000898481518110611e8e57634e487b7160e01b600052603260045260246000fd5b6020026020010151815260200190815260200160002081905550818181518110611ec857634e487b7160e01b600052603260045260246000fd5b602002602001015160076000898481518110611ef457634e487b7160e01b600052603260045260246000fd5b6020026020010151815260200190815260200160002060006101000a81548160ff0219169083151502179055508080611f2c906154a0565b915050611cb9565b6001546001600160a01b03163314611f8e5760405162461bcd60e51b815260206004820181905260248201527f4f776e61626c653a2063616c6c6572206973206e6f7420746865206f776e65726044820152606401610a0f565b611f9860006148b9565b565b611fa8600280546001019055565b6000611fb360025490565b60008181526006602090815260408083208990558a8352600d82529091208651929350611fe4929091870190614ac6565b506000818152600a60209081526040808320869055600982529182902080546001600160a01b038a166001600160a01b03199182168117909255600580549091169091179055905161204091016221272160e91b815260030190565b604051602081830303815290604052805190602001208460405160200161206791906151d7565b6040516020818303038152906040528051906020012014156121035760035460008281526006602052604081205490916120a9916103e89161136d919061475d565b600083815260066020526040812054919250906120c690836148ad565b90506120d28882614788565b6120fc7f000000000000000000000000000000000000000000000000000000000000000083614788565b50506123dd565b60008181526006602052604090819020549051600c906121249087906151d7565b908152604051908190036020018120546370a0823160e01b82523360048301526001600160a01b0316906370a082319060240160206040518083038186803b15801561216f57600080fd5b505afa158015612183573d6000803e3d6000fd5b505050506040513d601f19601f820116820180604052508101906121a79190614f94565b101561221b5760405162461bcd60e51b815260206004820152603260248201527f746f6b656e2062616c616e63652073686f756c6420626520677265617465722060448201527f7468616e2074686520627579416d6f756e7400000000000000000000000000006064820152608401610a0f565b6004546000828152600660205260408120549091612241916103e89161136d919061475d565b6000838152600660205260408120549192509061225e90836148ad565b9050600c8660405161227091906151d7565b908152604051908190036020018120546323b872dd60e01b82523360048301526001600160a01b038a811660248401526044830184905216906323b872dd90606401602060405180830381600087803b1580156122cc57600080fd5b505af11580156122e0573d6000803e3d6000fd5b505050506040513d601f19601f820116820180604052508101906123049190614d80565b61230d57600080fd5b600c8660405161231d91906151d7565b908152604051908190036020018120546323b872dd60e01b82523360048301526001600160a01b037f0000000000000000000000000000000000000000000000000000000000000000811660248401526044830185905216906323b872dd90606401602060405180830381600087803b15801561239957600080fd5b505af11580156123ad573d6000803e3d6000fd5b505050506040513d601f19601f820116820180604052508101906123d19190614d80565b6123da57600080fd5b50505b6000818152600760209081526040808320805460ff19169055600b9091529081902080546001600160a01b03191633908117909155905163399f900b60e21b81527f00000000000000000000000000000000000000000000000000000000000000006001600160a01b03169163e67e402c9161245f91859187906004016152a1565b600060405180830381600087803b15801561247957600080fd5b505af115801561248d573d6000803e3d6000fd5b5050506000828152600660209081526040918290205482519081529081018490523392506001600160a01b038916917f46661dab58311a6838247afecbee792192b4f27fc8b3e7168c66bc55ec2e404e910160405180910390a350505050505050565b7f00000000000000000000000000000000000000000000000000000000000000006001600160a01b0316331480156125365750612536600554600160a01b900460ff1690565b6125905760405162461bcd60e51b815260206004820152602560248201527f43616c6c657220646f6573206e6f7420686176652061646d696e2070726976696044820152646c6567657360d81b6064820152608401610a0f565b6040516323b872dd60e01b81523060048201526001600160a01b037f000000000000000000000000000000000000000000000000000000000000000081166024830152604482018390527f000000000000000000000000000000000000000000000000000000000000000016906323b872dd90606401600060405180830381600087803b15801561262057600080fd5b505af1158015612634573d6000803e3d6000fd5b5050505050565b600160008082825461264d91906153cb565b90915550506000548161265f81614714565b156126ac5760405162461bcd60e51b815260206004820152601560248201527f41756374696f6e20646f65736e277420657869737400000000000000000000006044820152606401610a0f565b600083815260086020526040902060050154839061010090046001600160a01b0316331461272a5760405162461bcd60e51b815260206004820152602560248201527f43616e206f6e6c792062652063616c6c65642062792061756374696f6e20437260448201526432b0ba37b960d91b6064820152608401610a0f565b600084815260086020526040902054156127865760405162461bcd60e51b815260206004820152601760248201527f41756374696f6e20616c726561647920737461727465640000000000000000006044820152606401610a0f565b6000848152600860205260408120600581015482825560018201839055600282018390556003820183905561010090046001600160a01b0316916127cd6004830182614b4a565b5060058101805474ffffffffffffffffffffffffffffffffffffffffff191690556006810180546001600160a01b03199081169091556007909101805490911690556040516323b872dd60e01b81523060048201526001600160a01b038281166024830152604482018790527f000000000000000000000000000000000000000000000000000000000000000016906323b872dd90606401600060405180830381600087803b15801561287f57600080fd5b505af1158015612893573d6000803e3d6000fd5b5050506000868152600760209081526040808320805460ff19169055600b82529182902080546001600160a01b0319166001600160a01b0386811691821790925583517f00000000000000000000000000000000000000000000000000000000000000009092168252918101919091528792507f31e46b3372adff8978a18a1c543a6b3a925ee693bdf7a7c54df36f30f87d290e910160405180910390a250505060005481146116c457600080fd5b6040516331a9108f60e11b8152600481018390526000907f00000000000000000000000000000000000000000000000000000000000000006001600160a01b031690636352211e9060240160206040518083038186803b1580156129a557600080fd5b505afa1580156129b9573d6000803e3d6000fd5b505050506040513d601f19601f820116820180604052508101906129dd9190614d64565b6001600160a01b0316336001600160a01b031614612a3d5760405162461bcd60e51b815260206004820152601c60248201527f4572726f722c20796f7520617265206e6f7420746865206f776e6572000000006044820152606401610a0f565b600083815260076020908152604091829020805460ff191685151590811790915582518681529182015233917f3fd63d9ca8dc693a1b9911e664951294721009a4f6239c862d6719a160a1edfc910160405180910390a250600192915050565b7f00000000000000000000000000000000000000000000000000000000000000006001600160a01b031633148015612ae35750612ae3600554600160a01b900460ff1690565b612b3d5760405162461bcd60e51b815260206004820152602560248201527f43616c6c657220646f6573206e6f7420686176652061646d696e2070726976696044820152646c6567657360d81b6064820152608401610a0f565b600580547fffffffffffffffffffffff00ffffffffffffffffffffffffffffffffffffffff169055565b612b708361490b565b6000838152600660205260409020548214612bcd5760405162461bcd60e51b815260206004820152601960248201527f4572726f722c207072696365206973206e6f74206d61746368000000000000006044820152606401610a0f565b6000838152600d60209081526040918290209151612bec9291016151f3565b6040516020818303038152906040528051906020012081604051602001612c1391906151d7565b6040516020818303038152906040528051906020012014612c765760405162461bcd60e51b815260206004820181905260248201527f4572726f722c205061796d656e742054797065206973206e6f74206d617463686044820152606401610a0f565b6000838152600b6020908152604080832054600a8352818420546006909352908320546001600160a01b039091169291612cb79160649161136d919061475d565b6040516221272160e91b60208201529091506023016040516020818303038152906040528051906020012083604051602001612cf391906151d7565b604051602081830303815290604052805190602001201415612e5457600085815260066020526040902054341015612d935760405162461bcd60e51b815260206004820152602a60248201527f6d73672e76616c75652073686f756c6420626520657175616c20746f2074686560448201527f20627579416d6f756e74000000000000000000000000000000000000000000006064820152608401610a0f565b6003546000868152600660205260408120549091612db9916103e89161136d919061475d565b60008781526006602052604081205491925090612ddc90849061158d90856148ad565b6000888152600b6020526040902054909150612e01906001600160a01b031682614788565b600087815260096020526040902054612e23906001600160a01b031684614788565b612e4d7f000000000000000000000000000000000000000000000000000000000000000083614788565b5050613203565b60008581526006602052604090819020549051600c90612e759086906151d7565b908152604051908190036020018120546370a0823160e01b82523360048301526001600160a01b0316906370a082319060240160206040518083038186803b158015612ec057600080fd5b505afa158015612ed4573d6000803e3d6000fd5b505050506040513d601f19601f82011682018060405250810190612ef89190614f94565b1015612f6c5760405162461bcd60e51b815260206004820152603260248201527f746f6b656e2062616c616e63652073686f756c6420626520677265617465722060448201527f7468616e2074686520627579416d6f756e7400000000000000000000000000006064820152608401610a0f565b6004546000868152600660205260408120549091612f92916103e89161136d919061475d565b60008781526006602052604081205491925090612fb590849061158d90856148ad565b9050600c85604051612fc791906151d7565b90815260408051602092819003830181205460008b8152600b90945291909220546323b872dd60e01b83523360048401526001600160a01b0390811660248401526044830184905216906323b872dd90606401602060405180830381600087803b15801561303457600080fd5b505af1158015613048573d6000803e3d6000fd5b505050506040513d601f19601f8201168201806040525081019061306c9190614d80565b61307557600080fd5b600c8560405161308591906151d7565b90815260408051602092819003830181205460008b8152600990945291909220546323b872dd60e01b83523360048401526001600160a01b0390811660248401526044830186905216906323b872dd90606401602060405180830381600087803b1580156130f257600080fd5b505af1158015613106573d6000803e3d6000fd5b505050506040513d601f19601f8201168201806040525081019061312a9190614d80565b61313357600080fd5b600c8560405161314391906151d7565b908152604051908190036020018120546323b872dd60e01b82523360048301526001600160a01b037f0000000000000000000000000000000000000000000000000000000000000000811660248401526044830185905216906323b872dd90606401602060405180830381600087803b1580156131bf57600080fd5b505af11580156131d3573d6000803e3d6000fd5b505050506040513d601f19601f820116820180604052508101906131f79190614d80565b61320057600080fd5b50505b6040516323b872dd60e01b8152306004820152336024820152604481018690527f00000000000000000000000000000000000000000000000000000000000000006001600160a01b0316906323b872dd90606401600060405180830381600087803b15801561327157600080fd5b505af1158015613285573d6000803e3d6000fd5b5050506000868152600b6020908152604080832080546001600160a01b0319163390811790915560078352818420805460ff1916905560068352928190205481519081529182018990529192506001600160a01b038516917f46661dab58311a6838247afecbee792192b4f27fc8b3e7168c66bc55ec2e404e910160405180910390a35050505050565b6000818152600b60205260409020546001600160a01b031633146133755760405162461bcd60e51b815260206004820152601360248201527f73656e646572206973206e6f74206f776e6572000000000000000000000000006044820152606401610a0f565b60008181526007602052604090205460ff1615156001146133d85760405162461bcd60e51b815260206004820152600e60248201527f416c726561647920636f6c7365640000000000000000000000000000000000006044820152606401610a0f565b6040516323b872dd60e01b8152306004820152336024820152604481018290527f00000000000000000000000000000000000000000000000000000000000000006001600160a01b0316906323b872dd90606401600060405180830381600087803b15801561344657600080fd5b505af115801561345a573d6000803e3d6000fd5b5050506000828152600760209081526040808320805460ff19169055600890915290206005015461010090046001600160a01b0316331415905061350f576000818152600860205260408120818155600181018290556002810182905560038101829055906134cc6004830182614b4a565b5060058101805474ffffffffffffffffffffffffffffffffffffffffff191690556006810180546001600160a01b03199081169091556007909101805490911690555b50565b7f00000000000000000000000000000000000000000000000000000000000000006001600160a01b0316331480156135585750613558600554600160a01b900460ff1690565b6135b25760405162461bcd60e51b815260206004820152602560248201527f43616c6c657220646f6573206e6f7420686176652061646d696e2070726976696044820152646c6567657360d81b6064820152608401610a0f565b6005805460ff60a81b191690556040513381527f5db9ee0a495bf2e6ff9c91a7834c1ba4fdd244a5e8aa4e537bd38aeae4b073aa90602001610aa6565b600160008082825461360191906153cb565b909155505060005461361c600554600160a81b900460ff1690565b1561365e5760405162461bcd60e51b815260206004820152601260248201527110dbdb9d1c9858dd081a5cc81c185d5cd95960721b6044820152606401610a0f565b60008281526008602052604090206002015482901580159061368857506136848161473b565b4210155b6136d45760405162461bcd60e51b815260206004820152601860248201527f41756374696f6e206861736e277420636f6d706c6574656400000000000000006044820152606401610a0f565b600083815260086020526040902060050154839061010090046001600160a01b031633148061371c57506000818152600860205260409020600601546001600160a01b031633145b6137765760405162461bcd60e51b815260206004820152602560248201527f43616e206f6e6c792062652063616c6c65642062792061756374696f6e20437260448201526432b0ba37b960d91b6064820152608401610a0f565b6000848152600860205260408120600681015481546005830154600490930180546001600160a01b039384169592946101009004909316926137b790615465565b80601f01602080910402602001604051908101604052809291908181526020018280546137e390615465565b80156138305780601f1061380557610100808354040283529160200191613830565b820191906000526020600020905b81548152906001019060200180831161381357829003601f168201915b50505060008b8152600860205260408120818155600181018290556002810182905560038101829055939450915061386d90506004830182614b4a565b5060058101805474ffffffffffffffffffffffffffffffffffffffffff191690556006810180546001600160a01b03199081169091556007909101805490911690556001600160a01b038416613971576040516323b872dd60e01b81523060048201526001600160a01b038381166024830152604482018a90527f000000000000000000000000000000000000000000000000000000000000000016906323b872dd90606401600060405180830381600087803b15801561392d57600080fd5b505af1158015613941573d6000803e3d6000fd5b5050506000898152600b6020526040902080546001600160a01b0319166001600160a01b03851617905550613f00565b6040516323b872dd60e01b81523060048201526001600160a01b038581166024830152604482018a90527f000000000000000000000000000000000000000000000000000000000000000016906323b872dd90606401600060405180830381600087803b1580156139e157600080fd5b505af11580156139f5573d6000803e3d6000fd5b50505050604051602001613a12906221272160e91b815260030190565b6040516020818303038152906040528051906020012081604051602001613a3991906151d7565b604051602081830303815290604052805190602001201415613b38576000613a726103e861136d6003548761475d90919063ffffffff16565b9050613a9e7f000000000000000000000000000000000000000000000000000000000000000082614788565b6000898152600960205260409020546001600160a01b0384811691161415613ad857613ad383613ace86846148ad565b614788565b613b32565b6000898152600a6020526040812054613af99060649061136d90889061475d565b60008b815260096020526040902054909150613b1e906001600160a01b031682614788565b613b3084613ace8461158d89866148ad565b505b50613ed8565b6000613b556103e861136d6004548761475d90919063ffffffff16565b9050600c82604051613b6791906151d7565b9081526040519081900360200181205463a9059cbb60e01b82526001600160a01b037f00000000000000000000000000000000000000000000000000000000000000008116600484015260248301849052169063a9059cbb90604401602060405180830381600087803b158015613bdd57600080fd5b505af1158015613bf1573d6000803e3d6000fd5b505050506040513d601f19601f82011682018060405250810190613c159190614d80565b613c1e57600080fd5b6000898152600960205260409020546001600160a01b0384811691161415613d1d57600c82604051613c5091906151d7565b908152604051908190036020019020546001600160a01b031663a9059cbb84613c7987856148ad565b6040517fffffffff0000000000000000000000000000000000000000000000000000000060e085901b1681526001600160a01b0390921660048301526024820152604401602060405180830381600087803b158015613cd757600080fd5b505af1158015613ceb573d6000803e3d6000fd5b505050506040513d601f19601f82011682018060405250810190613d0f9190614d80565b613d1857600080fd5b613ed6565b6000898152600a6020526040812054613d3e9060649061136d90889061475d565b9050600c83604051613d5091906151d7565b90815260408051602092819003830181205460008e81526009909452919092205463a9059cbb60e01b83526001600160a01b03908116600484015260248301849052169063a9059cbb90604401602060405180830381600087803b158015613db757600080fd5b505af1158015613dcb573d6000803e3d6000fd5b505050506040513d601f19601f82011682018060405250810190613def9190614d80565b613df857600080fd5b600c83604051613e0891906151d7565b908152604051908190036020019020546001600160a01b031663a9059cbb85613e358561158d8a876148ad565b6040517fffffffff0000000000000000000000000000000000000000000000000000000060e085901b1681526001600160a01b0390921660048301526024820152604401602060405180830381600087803b158015613e9357600080fd5b505af1158015613ea7573d6000803e3d6000fd5b505050506040513d601f19601f82011682018060405250810190613ecb9190614d80565b613ed457600080fd5b505b505b6000888152600b6020526040902080546001600160a01b0319166001600160a01b0386161790555b6000888152600760209081526040808320805460ff1916905560098252918290205482516001600160a01b037f00000000000000000000000000000000000000000000000000000000000000008116825280871693820193909352828816938101939093526060830186905216608082015288907f28e48213ce86ac133ca69274548aa4243a6e2433eee55213af64b46a2e719caf9060a00160405180910390a250505050505060005481146116c457600080fd5b6001546001600160a01b0316331461400f5760405162461bcd60e51b815260206004820181905260248201527f4f776e61626c653a2063616c6c6572206973206e6f7420746865206f776e65726044820152606401610a0f565b81600c8460405161402091906151d7565b908152602001604051809103902060006101000a8154816001600160a01b0302191690836001600160a01b0316021790555080600e8460405161406391906151d7565b90815260405190819003602001902080546001600160a01b03929092166001600160a01b0319909216919091179055505050565b6001546001600160a01b031633146140f15760405162461bcd60e51b815260206004820181905260248201527f4f776e61626c653a2063616c6c6572206973206e6f7420746865206f776e65726044820152606401610a0f565b6000600c8360405161410391906151d7565b908152604051908190036020018120546370a0823160e01b82523060048301526001600160a01b0316906370a082319060240160206040518083038186803b15801561414e57600080fd5b505afa158015614162573d6000803e3d6000fd5b505050506040513d601f19601f820116820180604052508101906141869190614f94565b9050808211156141fe5760405162461bcd60e51b815260206004820152602660248201527f496e73756666696369656e7420746f6b656e2062616c616e636520746f20776960448201527f74686472617700000000000000000000000000000000000000000000000000006064820152608401610a0f565b600c8360405161420e91906151d7565b9081526040519081900360200181205463a9059cbb60e01b8252336004830152602482018390526001600160a01b03169063a9059cbb90604401602060405180830381600087803b15801561426257600080fd5b505af1158015614276573d6000803e3d6000fd5b505050506040513d601f19601f8201168201806040525081019061429a9190614d80565b6142a357600080fd5b505050565b600d60205260009081526040902080546142c190615465565b80601f01602080910402602001604051908101604052809291908181526020018280546142ed90615465565b801561433a5780601f1061430f5761010080835404028352916020019161433a565b820191906000526020600020905b81548152906001019060200180831161431d57829003601f168201915b505050505081565b6000838152600b60205260409020546001600160a01b031633146143a85760405162461bcd60e51b815260206004820152601360248201527f73656e646572206973206e6f74206f776e6572000000000000000000000000006044820152606401610a0f565b60008381526007602052604090205460ff16156144075760405162461bcd60e51b815260206004820152600e60248201527f416c7265616479206f70656e65640000000000000000000000000000000000006044820152606401610a0f565b6040517f095ea7b3000000000000000000000000000000000000000000000000000000008152306004820152602481018490527f00000000000000000000000000000000000000000000000000000000000000006001600160a01b03169063095ea7b390604401600060405180830381600087803b15801561448857600080fd5b505af115801561449c573d6000803e3d6000fd5b50506040516323b872dd60e01b8152336004820152306024820152604481018690527f00000000000000000000000000000000000000000000000000000000000000006001600160a01b031692506323b872dd9150606401600060405180830381600087803b15801561450e57600080fd5b505af1158015614522573d6000803e3d6000fd5b5050506000848152600760209081526040808320805460ff1916600117905560068252808320869055600d8252909120835161163593509091840190614ac6565b6001546001600160a01b031633146145bd5760405162461bcd60e51b815260206004820181905260248201527f4f776e61626c653a2063616c6c6572206973206e6f7420746865206f776e65726044820152606401610a0f565b6001600160a01b0381166146395760405162461bcd60e51b815260206004820152602660248201527f4f776e61626c653a206e6577206f776e657220697320746865207a65726f206160448201527f64647265737300000000000000000000000000000000000000000000000000006064820152608401610a0f565b61350f816148b9565b60007f00000000000000000000000000000000000000000000000000000000000000006001600160a01b03163314801561468a575061468a600554600160a01b900460ff1690565b6146e45760405162461bcd60e51b815260206004820152602560248201527f43616c6c657220646f6573206e6f7420686176652061646d696e2070726976696044820152646c6567657360d81b6064820152608401610a0f565b61470e7f000000000000000000000000000000000000000000000000000000000000000083614a63565b92915050565b60008181526008602052604090206005015461010090046001600160a01b0316155b919050565b6000818152600860205260408120600181015460029091015461470e9161477c565b60006147698284615403565b9392505050565b600061476982846153e3565b600061476982846153cb565b6147928282614a63565b6116c4577f00000000000000000000000000000000000000000000000000000000000000006001600160a01b031663d0e30db0826040518263ffffffff1660e01b81526004016000604051808303818588803b1580156147f157600080fd5b505af1158015614805573d6000803e3d6000fd5b505060405163a9059cbb60e01b81526001600160a01b038681166004830152602482018690527f000000000000000000000000000000000000000000000000000000000000000016935063a9059cbb92506044019050602060405180830381600087803b15801561487557600080fd5b505af1158015614889573d6000803e3d6000fd5b505050506040513d601f19601f820116820180604052508101906142a39190614d80565b60006147698284615422565b600180546001600160a01b038381166001600160a01b0319831681179093556040519116919082907f8be0079c531659141344cd1fd0a4f28419497f9722a3daafe3b4186f6b6457e090600090a35050565b60008181526007602052604090205460ff168061496a5760405162461bcd60e51b815260206004820152601960248201527f4974656d206e6f74206c69737465642063757272656e746c79000000000000006044820152606401610a0f565b6040516331a9108f60e11b8152600481018390527f00000000000000000000000000000000000000000000000000000000000000006001600160a01b031690636352211e9060240160206040518083038186803b1580156149ca57600080fd5b505afa1580156149de573d6000803e3d6000fd5b505050506040513d601f19601f82011682018060405250810190614a029190614d64565b6001600160a01b0316336001600160a01b031614156116c45760405162461bcd60e51b815260206004820152601860248201527f43616e206e6f7420627579207768617420796f75206f776e00000000000000006044820152606401610a0f565b600080836001600160a01b03168361753090604051600060405180830381858888f193505050503d8060008114614ab6576040519150601f19603f3d011682016040523d82523d6000602084013e614abb565b606091505b509095945050505050565b828054614ad290615465565b90600052602060002090601f016020900481019282614af45760008555614b3a565b82601f10614b0d57805160ff1916838001178555614b3a565b82800160010185558215614b3a579182015b82811115614b3a578251825591602001919060010190614b1f565b50614b46929150614b82565b5090565b508054614b5690615465565b6000825580601f10614b68575061350f565b601f01602090049060005260206000209081019061350f91905b5b80821115614b465760008155600101614b83565b600082601f830112614ba7578081fd5b81356020614bbc614bb7836153a7565b615376565b80838252828201915082860187848660051b8901011115614bdb578586fd5b855b85811015614c02578135614bf0816154e7565b84529284019290840190600101614bdd565b5090979650505050505050565b600082601f830112614c1f578081fd5b81356020614c2f614bb7836153a7565b80838252828201915082860187848660051b8901011115614c4e578586fd5b855b85811015614c02578135614c63816154fc565b84529284019290840190600101614c50565b600082601f830112614c85578081fd5b81356020614c95614bb7836153a7565b80838252828201915082860187848660051b8901011115614cb4578586fd5b855b85811015614c0257813584529284019290840190600101614cb6565b8035614736816154fc565b600082601f830112614ced578081fd5b813567ffffffffffffffff811115614d0757614d076154d1565b614d1a601f8201601f1916602001615376565b818152846020838601011115614d2e578283fd5b816020850160208301379081016020019190915292915050565b600060208284031215614d59578081fd5b8135614769816154e7565b600060208284031215614d75578081fd5b8151614769816154e7565b600060208284031215614d91578081fd5b8151614769816154fc565b600080600080600080600060e0888a031215614db6578283fd5b614dbf88614cd2565b9650602088013567ffffffffffffffff80821115614ddb578485fd5b614de78b838c01614c75565b975060408a0135915080821115614dfc578485fd5b614e088b838c01614b97565b965060608a0135915080821115614e1d578485fd5b614e298b838c01614c75565b955060808a0135915080821115614e3e578485fd5b614e4a8b838c01614b97565b945060a08a0135915080821115614e5f578384fd5b614e6b8b838c01614c75565b935060c08a0135915080821115614e80578283fd5b50614e8d8a828b01614c0f565b91505092959891949750929550565b600060208284031215614ead578081fd5b813567ffffffffffffffff811115614ec3578182fd5b614ecf84828501614cdd565b949350505050565b600080600060608486031215614eeb578283fd5b833567ffffffffffffffff811115614f01578384fd5b614f0d86828701614cdd565b9350506020840135614f1e816154e7565b91506040840135614f2e816154e7565b809150509250925092565b60008060408385031215614f4b578182fd5b823567ffffffffffffffff811115614f61578283fd5b614f6d85828601614cdd565b95602094909401359450505050565b600060208284031215614f8d578081fd5b5035919050565b600060208284031215614fa5578081fd5b5051919050565b60008060008060008060c08789031215614fc4578384fd5b863595506020870135614fd6816154e7565b945060408701359350606087013567ffffffffffffffff80821115614ff9578384fd5b6150058a838b01614cdd565b94506080890135935060a0890135915080821115615021578283fd5b5061502e89828a01614cdd565b9150509295509295509295565b6000806040838503121561504d578182fd5b82359150602083013561505f816154fc565b809150509250929050565b600080600080600080600060e0888a031215615084578081fd5b873596506020880135615096816154fc565b9550604088013567ffffffffffffffff808211156150b2578283fd5b6150be8b838c01614cdd565b965060608a0135955060808a0135945060a08a01359150808211156150e1578283fd5b506150ee8a828b01614cdd565b92505060c08801356150ff816154e7565b8091505092959891949750929550565b600080600060608486031215615123578081fd5b83359250602084013567ffffffffffffffff811115615140578182fd5b61514c86828701614cdd565b925050604084013590509250925092565b600080600060608486031215615171578081fd5b8335925060208401359150604084013567ffffffffffffffff811115615195578182fd5b6151a186828701614cdd565b9150509250925092565b600081518084526151c3816020860160208601615439565b601f01601f19169290920160200192915050565b600082516151e9818460208701615439565b9190910192915050565b600080835482600182811c91508083168061520f57607f831692505b602080841082141561522f57634e487b7160e01b87526022600452602487fd5b818015615243576001811461525457615280565b60ff19861689528489019650615280565b60008a815260209020885b868110156152785781548b82015290850190830161525f565b505084890196505b509498975050505050505050565b60006020825261476960208301846151ab565b60008482526001600160a01b0384166020830152606060408301526152c960608301846151ab565b95945050505050565b600086825285602083015284604083015260a060608301526152f760a08301856151ab565b90506001600160a01b03831660808301529695505050505050565b60006101208b83528a602084015289604084015288606084015280608084015261533e818401896151ab565b60ff9790971660a084015250506001600160a01b0393841660c082015291831660e08301529091166101009091015295945050505050565b604051601f8201601f1916810167ffffffffffffffff8111828210171561539f5761539f6154d1565b604052919050565b600067ffffffffffffffff8211156153c1576153c16154d1565b5060051b60200190565b600082198211156153de576153de6154bb565b500190565b6000826153fe57634e487b7160e01b81526012600452602481fd5b500490565b600081600019048311821515161561541d5761541d6154bb565b500290565b600082821015615434576154346154bb565b500390565b60005b8381101561545457818101518382015260200161543c565b838111156116355750506000910152565b600181811c9082168061547957607f821691505b6020821081141561549a57634e487b7160e01b600052602260045260246000fd5b50919050565b60006000198214156154b4576154b46154bb565b5060010190565b634e487b7160e01b600052601160045260246000fd5b634e487b7160e01b600052604160045260246000fd5b6001600160a01b038116811461350f57600080fd5b801515811461350f57600080fdfea264697066735822122047bc3c373b6e0b234b6e0ec0801c66fba7a1868ed629a597e291f57a263a382a64736f6c63430008030033",
  "linkReferences": {},
  "deployedLinkReferences": {}
}